{"abi":[{"type":"constructor","inputs":[{"name":"_usdcToken","type":"address","internalType":"address"}],"stateMutability":"nonpayable"},{"type":"function","name":"FEE_PERCENTAGE","inputs":[],"outputs":[{"name":"","type":"uint256","internalType":"uint256"}],"stateMutability":"view"},{"type":"function","name":"FIXED_FEE","inputs":[],"outputs":[{"name":"","type":"uint256","internalType":"uint256"}],"stateMutability":"view"},{"type":"function","name":"calculatePrice","inputs":[{"name":"capsuleType","type":"string","internalType":"string"},{"name":"extraStorageUnits","type":"uint256","internalType":"uint256"},{"name":"customAccess","type":"bool","internalType":"bool"}],"outputs":[{"name":"","type":"uint256","internalType":"uint256"}],"stateMutability":"view"},{"type":"function","name":"capsuleTypes","inputs":[{"name":"","type":"string","internalType":"string"}],"outputs":[{"name":"basePrice","type":"uint256","internalType":"uint256"},{"name":"maxSize","type":"uint256","internalType":"uint256"},{"name":"duration","type":"uint256","internalType":"uint256"}],"stateMutability":"view"},{"type":"function","name":"checkPaymentPossible","inputs":[{"name":"user","type":"address","internalType":"address"},{"name":"capsuleType","type":"string","internalType":"string"},{"name":"extraStorageUnits","type":"uint256","internalType":"uint256"},{"name":"customAccess","type":"bool","internalType":"bool"}],"outputs":[{"name":"","type":"bool","internalType":"bool"}],"stateMutability":"view"},{"type":"function","name":"customAccessPrice","inputs":[],"outputs":[{"name":"","type":"uint256","internalType":"uint256"}],"stateMutability":"view"},{"type":"function","name":"extraStoragePrice","inputs":[],"outputs":[{"name":"","type":"uint256","internalType":"uint256"}],"stateMutability":"view"},{"type":"function","name":"isPromotionalPeriod","inputs":[],"outputs":[{"name":"","type":"bool","internalType":"bool"}],"stateMutability":"view"},{"type":"function","name":"owner","inputs":[],"outputs":[{"name":"","type":"address","internalType":"address"}],"stateMutability":"view"},{"type":"function","name":"processCapsulePayment","inputs":[{"name":"user","type":"address","internalType":"address"},{"name":"capsuleType","type":"string","internalType":"string"},{"name":"extraStorageUnits","type":"uint256","internalType":"uint256"},{"name":"customAccess","type":"bool","internalType":"bool"}],"outputs":[{"name":"","type":"bool","internalType":"bool"}],"stateMutability":"nonpayable"},{"type":"function","name":"promotionalPeriodEnd","inputs":[],"outputs":[{"name":"","type":"uint256","internalType":"uint256"}],"stateMutability":"view"},{"type":"function","name":"renounceOwnership","inputs":[],"outputs":[],"stateMutability":"nonpayable"},{"type":"function","name":"transferOwnership","inputs":[{"name":"newOwner","type":"address","internalType":"address"}],"outputs":[],"stateMutability":"nonpayable"},{"type":"function","name":"updateCapsuleType","inputs":[{"name":"name","type":"string","internalType":"string"},{"name":"basePrice","type":"uint256","internalType":"uint256"},{"name":"maxSize","type":"uint256","internalType":"uint256"},{"name":"duration","type":"uint256","internalType":"uint256"}],"outputs":[],"stateMutability":"nonpayable"},{"type":"function","name":"updateCustomAccessPrice","inputs":[{"name":"newPrice","type":"uint256","internalType":"uint256"}],"outputs":[],"stateMutability":"nonpayable"},{"type":"function","name":"updateExtraStoragePrice","inputs":[{"name":"newPrice","type":"uint256","internalType":"uint256"}],"outputs":[],"stateMutability":"nonpayable"},{"type":"function","name":"usdcToken","inputs":[],"outputs":[{"name":"","type":"address","internalType":"contract IERC20"}],"stateMutability":"view"},{"type":"function","name":"withdrawUSDC","inputs":[{"name":"to","type":"address","internalType":"address"},{"name":"amount","type":"uint256","internalType":"uint256"}],"outputs":[],"stateMutability":"nonpayable"},{"type":"event","name":"CapsuleTypeUpdated","inputs":[{"name":"name","type":"string","indexed":false,"internalType":"string"},{"name":"basePrice","type":"uint256","indexed":false,"internalType":"uint256"},{"name":"maxSize","type":"uint256","indexed":false,"internalType":"uint256"},{"name":"duration","type":"uint256","indexed":false,"internalType":"uint256"}],"anonymous":false},{"type":"event","name":"OwnershipTransferred","inputs":[{"name":"previousOwner","type":"address","indexed":true,"internalType":"address"},{"name":"newOwner","type":"address","indexed":true,"internalType":"address"}],"anonymous":false},{"type":"event","name":"PriceCalculated","inputs":[{"name":"user","type":"address","indexed":false,"internalType":"address"},{"name":"capsuleType","type":"string","indexed":false,"internalType":"string"},{"name":"totalPrice","type":"uint256","indexed":false,"internalType":"uint256"}],"anonymous":false}],"bytecode":{"object":"0x60806040526207a1206003556216e3606004553480156200001f57600080fd5b5060405162001e5b38038062001e5b8339818101604052810190620000459190620003d7565b6200006562000059620002a160201b60201c565b620002a960201b60201c565b80600160006101000a81548173ffffffffffffffffffffffffffffffffffffffff021916908373ffffffffffffffffffffffffffffffffffffffff16021790555062ed4e0042620000b7919062000442565b6005819055506040518060600160405280621e84808152602001600a815260200160058152506002604051620000ed90620004d8565b90815260200160405180910390206000820151816000015560208201518160010155604082015181600201559050506040518060600160405280625b8d80815260200160328152602001600a81525060026040516200014c906200053f565b9081526020016040518091039020600082015181600001556020820151816001015560408201518160020155905050604051806060016040528062a7d8c081526020016064815260200160148152506002604051620001ab90620005a6565b9081526020016040518091039020600082015181600001556020820151816001015560408201518160020155905050604051806060016040528063017d7840815260200160648152602001603281525060026040516200020b906200060d565b908152602001604051809103902060008201518160000155602082015181600101556040820151816002015590505060405180606001604052806303dfd240815260200160648152602001600081525060026040516200026b9062000674565b9081526020016040518091039020600082015181600001556020820151816001015560408201518160020155905050506200068b565b600033905090565b60008060009054906101000a900473ffffffffffffffffffffffffffffffffffffffff169050816000806101000a81548173ffffffffffffffffffffffffffffffffffffffff021916908373ffffffffffffffffffffffffffffffffffffffff1602179055508173ffffffffffffffffffffffffffffffffffffffff168173ffffffffffffffffffffffffffffffffffffffff167f8be0079c531659141344cd1fd0a4f28419497f9722a3daafe3b4186f6b6457e060405160405180910390a35050565b600080fd5b600073ffffffffffffffffffffffffffffffffffffffff82169050919050565b60006200039f8262000372565b9050919050565b620003b18162000392565b8114620003bd57600080fd5b50565b600081519050620003d181620003a6565b92915050565b600060208284031215620003f057620003ef6200036d565b5b60006200040084828501620003c0565b91505092915050565b6000819050919050565b7f4e487b7100000000000000000000000000000000000000000000000000000000600052601160045260246000fd5b60006200044f8262000409565b91506200045c8362000409565b925082820190508082111562000477576200047662000413565b5b92915050565b600081905092915050565b7f736d616c6c000000000000000000000000000000000000000000000000000000600082015250565b6000620004c06005836200047d565b9150620004cd8262000488565b600582019050919050565b6000620004e582620004b1565b9150819050919050565b7f6d656469756d0000000000000000000000000000000000000000000000000000600082015250565b6000620005276006836200047d565b91506200053482620004ef565b600682019050919050565b60006200054c8262000518565b9150819050919050565b7f6c61726765000000000000000000000000000000000000000000000000000000600082015250565b60006200058e6005836200047d565b91506200059b8262000556565b600582019050919050565b6000620005b3826200057f565b9150819050919050565b7f7072656d69756d00000000000000000000000000000000000000000000000000600082015250565b6000620005f56007836200047d565b91506200060282620005bd565b600782019050919050565b60006200061a82620005e6565b9150819050919050565b7f657465726e616c00000000000000000000000000000000000000000000000000600082015250565b60006200065c6007836200047d565b9150620006698262000624565b600782019050919050565b600062000681826200064d565b9150819050919050565b6117c0806200069b6000396000f3fe608060405234801561001057600080fd5b50600436106101155760003560e01c806387e68c4e116100a2578063c3c84ba711610071578063c3c84ba7146102be578063cc13ea86146102dc578063db2d1c9d1461030c578063eedc440e1461032a578063f2fde38b1461034657610115565b806387e68c4e146102365780638da5cb5b1461025257806393c2e64014610270578063b8b5ee2f1461028e57610115565b80633aa62b62116100e95780633aa62b62146101a457806344471fd9146101c05780635ae91880146101dc5780636e6506a21461020e578063715018a61461022c57610115565b80620b46f81461011a57806311eac8551461013857806323d1b06c1461015657806330f03e8814610174575b600080fd5b610122610362565b60405161012f9190610c20565b60405180910390f35b610140610367565b60405161014d9190610cba565b60405180910390f35b61015e61038d565b60405161016b9190610c20565b60405180910390f35b61018e60048036038101906101899190610ed1565b610394565b60405161019b9190610f63565b60405180910390f35b6101be60048036038101906101b99190610f7e565b610518565b005b6101da60048036038101906101d59190610fab565b61052a565b005b6101f660048036038101906101f19190610feb565b610615565b60405161020593929190611034565b60405180910390f35b610216610655565b6040516102239190610c20565b60405180910390f35b61023461065b565b005b610250600480360381019061024b9190610f7e565b61066f565b005b61025a610681565b604051610267919061107a565b60405180910390f35b6102786106aa565b6040516102859190610c20565b60405180910390f35b6102a860048036038101906102a39190610ed1565b6106b0565b6040516102b59190610f63565b60405180910390f35b6102c6610813565b6040516102d39190610f63565b60405180910390f35b6102f660048036038101906102f19190611095565b610820565b6040516103039190610c20565b60405180910390f35b61031461098f565b6040516103219190610c20565b60405180910390f35b610344600480360381019061033f9190611104565b610995565b005b610360600480360381019061035b9190611187565b610a3a565b005b60c881565b600160009054906101000a900473ffffffffffffffffffffffffffffffffffffffff1681565b6207a12081565b6000806103a2858585610820565b90506103b0868686866106b0565b6103ef576040517f08c379a00000000000000000000000000000000000000000000000000000000081526004016103e690611237565b60405180910390fd5b600160009054906101000a900473ffffffffffffffffffffffffffffffffffffffff1673ffffffffffffffffffffffffffffffffffffffff166323b872dd8730846040518463ffffffff1660e01b815260040161044e93929190611257565b6020604051808303816000875af115801561046d573d6000803e3d6000fd5b505050506040513d601f19601f8201168201806040525081019061049191906112a3565b6104d0576040517f08c379a00000000000000000000000000000000000000000000000000000000081526004016104c79061131c565b60405180910390fd5b7fa61476ecc9d9c2a432fff88537e6e22264c1d01ef9c9c4066f455c7938486a20868683604051610503939291906113aa565b60405180910390a16001915050949350505050565b610520610abd565b8060048190555050565b610532610abd565b600160009054906101000a900473ffffffffffffffffffffffffffffffffffffffff1673ffffffffffffffffffffffffffffffffffffffff1663a9059cbb83836040518363ffffffff1660e01b815260040161058f9291906113e8565b6020604051808303816000875af11580156105ae573d6000803e3d6000fd5b505050506040513d601f19601f820116820180604052508101906105d291906112a3565b610611576040517f08c379a00000000000000000000000000000000000000000000000000000000081526004016106089061131c565b60405180910390fd5b5050565b6002818051602081018201805184825260208301602085012081835280955050505050506000915090508060000154908060010154908060020154905083565b60035481565b610663610abd565b61066d6000610b3b565b565b610677610abd565b8060038190555050565b60008060009054906101000a900473ffffffffffffffffffffffffffffffffffffffff16905090565b60045481565b6000806106be858585610820565b905080600160009054906101000a900473ffffffffffffffffffffffffffffffffffffffff1673ffffffffffffffffffffffffffffffffffffffff166370a08231886040518263ffffffff1660e01b815260040161071c919061107a565b602060405180830381865afa158015610739573d6000803e3d6000fd5b505050506040513d601f19601f8201168201806040525081019061075d9190611426565b10158015610808575080600160009054906101000a900473ffffffffffffffffffffffffffffffffffffffff1673ffffffffffffffffffffffffffffffffffffffff1663dd62ed3e88306040518363ffffffff1660e01b81526004016107c4929190611453565b602060405180830381865afa1580156107e1573d6000803e3d6000fd5b505050506040513d601f19601f820116820180604052508101906108059190611426565b10155b915050949350505050565b6000600554421115905090565b60008060028560405161083391906114b8565b90815260200160405180910390206000015411610885576040517f08c379a000000000000000000000000000000000000000000000000000000000815260040161087c9061151b565b60405180910390fd5b60055442116108e3576000620f4240600a856108a1919061156a565b6108ab919061156a565b9050600061271060c8836108bf919061156a565b6108c991906115db565b9050806207a1206108da919061160c565b92505050610988565b60006002856040516108f591906114b8565b9081526020016040518091039020600001549050600084111561092e5760035484610920919061156a565b8161092b919061160c565b90505b82156109455760045481610942919061160c565b90505b6207a12081610954919061160c565b9050600061271060c883610968919061156a565b61097291906115db565b90508082610980919061160c565b915081925050505b9392505050565b60055481565b61099d610abd565b6040518060600160405280848152602001838152602001828152506002856040516109c891906114b8565b90815260200160405180910390206000820151816000015560208201518160010155604082015181600201559050507fe496bdcac3014f4f9b7bb275be75889c6493c028a1932e14f347045552e047df84848484604051610a2c9493929190611640565b60405180910390a150505050565b610a42610abd565b600073ffffffffffffffffffffffffffffffffffffffff168173ffffffffffffffffffffffffffffffffffffffff1603610ab1576040517f08c379a0000000000000000000000000000000000000000000000000000000008152600401610aa8906116fe565b60405180910390fd5b610aba81610b3b565b50565b610ac5610bff565b73ffffffffffffffffffffffffffffffffffffffff16610ae3610681565b73ffffffffffffffffffffffffffffffffffffffff1614610b39576040517f08c379a0000000000000000000000000000000000000000000000000000000008152600401610b309061176a565b60405180910390fd5b565b60008060009054906101000a900473ffffffffffffffffffffffffffffffffffffffff169050816000806101000a81548173ffffffffffffffffffffffffffffffffffffffff021916908373ffffffffffffffffffffffffffffffffffffffff1602179055508173ffffffffffffffffffffffffffffffffffffffff168173ffffffffffffffffffffffffffffffffffffffff167f8be0079c531659141344cd1fd0a4f28419497f9722a3daafe3b4186f6b6457e060405160405180910390a35050565b600033905090565b6000819050919050565b610c1a81610c07565b82525050565b6000602082019050610c356000830184610c11565b92915050565b600073ffffffffffffffffffffffffffffffffffffffff82169050919050565b6000819050919050565b6000610c80610c7b610c7684610c3b565b610c5b565b610c3b565b9050919050565b6000610c9282610c65565b9050919050565b6000610ca482610c87565b9050919050565b610cb481610c99565b82525050565b6000602082019050610ccf6000830184610cab565b92915050565b6000604051905090565b600080fd5b600080fd5b6000610cf482610c3b565b9050919050565b610d0481610ce9565b8114610d0f57600080fd5b50565b600081359050610d2181610cfb565b92915050565b600080fd5b600080fd5b6000601f19601f8301169050919050565b7f4e487b7100000000000000000000000000000000000000000000000000000000600052604160045260246000fd5b610d7a82610d31565b810181811067ffffffffffffffff82111715610d9957610d98610d42565b5b80604052505050565b6000610dac610cd5565b9050610db88282610d71565b919050565b600067ffffffffffffffff821115610dd857610dd7610d42565b5b610de182610d31565b9050602081019050919050565b82818337600083830152505050565b6000610e10610e0b84610dbd565b610da2565b905082815260208101848484011115610e2c57610e2b610d2c565b5b610e37848285610dee565b509392505050565b600082601f830112610e5457610e53610d27565b5b8135610e64848260208601610dfd565b91505092915050565b610e7681610c07565b8114610e8157600080fd5b50565b600081359050610e9381610e6d565b92915050565b60008115159050919050565b610eae81610e99565b8114610eb957600080fd5b50565b600081359050610ecb81610ea5565b92915050565b60008060008060808587031215610eeb57610eea610cdf565b5b6000610ef987828801610d12565b945050602085013567ffffffffffffffff811115610f1a57610f19610ce4565b5b610f2687828801610e3f565b9350506040610f3787828801610e84565b9250506060610f4887828801610ebc565b91505092959194509250565b610f5d81610e99565b82525050565b6000602082019050610f786000830184610f54565b92915050565b600060208284031215610f9457610f93610cdf565b5b6000610fa284828501610e84565b91505092915050565b60008060408385031215610fc257610fc1610cdf565b5b6000610fd085828601610d12565b9250506020610fe185828601610e84565b9150509250929050565b60006020828403121561100157611000610cdf565b5b600082013567ffffffffffffffff81111561101f5761101e610ce4565b5b61102b84828501610e3f565b91505092915050565b60006060820190506110496000830186610c11565b6110566020830185610c11565b6110636040830184610c11565b949350505050565b61107481610ce9565b82525050565b600060208201905061108f600083018461106b565b92915050565b6000806000606084860312156110ae576110ad610cdf565b5b600084013567ffffffffffffffff8111156110cc576110cb610ce4565b5b6110d886828701610e3f565b93505060206110e986828701610e84565b92505060406110fa86828701610ebc565b9150509250925092565b6000806000806080858703121561111e5761111d610cdf565b5b600085013567ffffffffffffffff81111561113c5761113b610ce4565b5b61114887828801610e3f565b945050602061115987828801610e84565b935050604061116a87828801610e84565b925050606061117b87828801610e84565b91505092959194509250565b60006020828403121561119d5761119c610cdf565b5b60006111ab84828501610d12565b91505092915050565b600082825260208201905092915050565b7f536f6c6465205553444320696e737566666973616e74206f7520616c6c6f776160008201527f6e6365206e6f6e206163636f7264656500000000000000000000000000000000602082015250565b60006112216030836111b4565b915061122c826111c5565b604082019050919050565b6000602082019050818103600083015261125081611214565b9050919050565b600060608201905061126c600083018661106b565b611279602083018561106b565b6112866040830184610c11565b949350505050565b60008151905061129d81610ea5565b92915050565b6000602082840312156112b9576112b8610cdf565b5b60006112c78482850161128e565b91505092915050565b7f5472616e73666572742055534443206563686f75650000000000000000000000600082015250565b60006113066015836111b4565b9150611311826112d0565b602082019050919050565b60006020820190508181036000830152611335816112f9565b9050919050565b600081519050919050565b60005b8381101561136557808201518184015260208101905061134a565b60008484015250505050565b600061137c8261133c565b61138681856111b4565b9350611396818560208601611347565b61139f81610d31565b840191505092915050565b60006060820190506113bf600083018661106b565b81810360208301526113d18185611371565b90506113e06040830184610c11565b949350505050565b60006040820190506113fd600083018561106b565b61140a6020830184610c11565b9392505050565b60008151905061142081610e6d565b92915050565b60006020828403121561143c5761143b610cdf565b5b600061144a84828501611411565b91505092915050565b6000604082019050611468600083018561106b565b611475602083018461106b565b9392505050565b600081905092915050565b60006114928261133c565b61149c818561147c565b93506114ac818560208601611347565b80840191505092915050565b60006114c48284611487565b915081905092915050565b7f547970652064652063617073756c6520696e76616c6964650000000000000000600082015250565b60006115056018836111b4565b9150611510826114cf565b602082019050919050565b60006020820190508181036000830152611534816114f8565b9050919050565b7f4e487b7100000000000000000000000000000000000000000000000000000000600052601160045260246000fd5b600061157582610c07565b915061158083610c07565b925082820261158e81610c07565b915082820484148315176115a5576115a461153b565b5b5092915050565b7f4e487b7100000000000000000000000000000000000000000000000000000000600052601260045260246000fd5b60006115e682610c07565b91506115f183610c07565b925082611601576116006115ac565b5b828204905092915050565b600061161782610c07565b915061162283610c07565b925082820190508082111561163a5761163961153b565b5b92915050565b6000608082019050818103600083015261165a8187611371565b90506116696020830186610c11565b6116766040830185610c11565b6116836060830184610c11565b95945050505050565b7f4f776e61626c653a206e6577206f776e657220697320746865207a65726f206160008201527f6464726573730000000000000000000000000000000000000000000000000000602082015250565b60006116e86026836111b4565b91506116f38261168c565b604082019050919050565b60006020820190508181036000830152611717816116db565b9050919050565b7f4f776e61626c653a2063616c6c6572206973206e6f7420746865206f776e6572600082015250565b60006117546020836111b4565b915061175f8261171e565b602082019050919050565b6000602082019050818103600083015261178381611747565b905091905056fea264697066735822122025bef894f475c851328ac0c961f194b8c4f021d838918fda5407193e8fa849d264736f6c63430008130033","linkReferences":{}},"methodIdentifiers":{"FEE_PERCENTAGE()":"000b46f8","FIXED_FEE()":"23d1b06c","calculatePrice(string,uint256,bool)":"cc13ea86","capsuleTypes(string)":"5ae91880","checkPaymentPossible(address,string,uint256,bool)":"b8b5ee2f","customAccessPrice()":"93c2e640","extraStoragePrice()":"6e6506a2","isPromotionalPeriod()":"c3c84ba7","owner()":"8da5cb5b","processCapsulePayment(address,string,uint256,bool)":"30f03e88","promotionalPeriodEnd()":"db2d1c9d","renounceOwnership()":"715018a6","transferOwnership(address)":"f2fde38b","updateCapsuleType(string,uint256,uint256,uint256)":"eedc440e","updateCustomAccessPrice(uint256)":"3aa62b62","updateExtraStoragePrice(uint256)":"87e68c4e","usdcToken()":"11eac855","withdrawUSDC(address,uint256)":"44471fd9"},"id":0}