{"abi":[{"type":"constructor","inputs":[{"name":"_usdcToken","type":"address","internalType":"address"}],"stateMutability":"nonpayable"},{"type":"function","name":"FEE_PERCENTAGE","inputs":[],"outputs":[{"name":"","type":"uint256","internalType":"uint256"}],"stateMutability":"view"},{"type":"function","name":"FIXED_FEE","inputs":[],"outputs":[{"name":"","type":"uint256","internalType":"uint256"}],"stateMutability":"view"},{"type":"function","name":"calculatePrice","inputs":[{"name":"capsuleType","type":"string","internalType":"string"},{"name":"extraStorageUnits","type":"uint256","internalType":"uint256"},{"name":"customAccess","type":"bool","internalType":"bool"}],"outputs":[{"name":"","type":"uint256","internalType":"uint256"}],"stateMutability":"view"},{"type":"function","name":"capsuleTypes","inputs":[{"name":"","type":"string","internalType":"string"}],"outputs":[{"name":"basePrice","type":"uint256","internalType":"uint256"},{"name":"maxSize","type":"uint256","internalType":"uint256"},{"name":"duration","type":"uint256","internalType":"uint256"}],"stateMutability":"view"},{"type":"function","name":"checkPaymentPossible","inputs":[{"name":"user","type":"address","internalType":"address"},{"name":"capsuleType","type":"string","internalType":"string"},{"name":"extraStorageUnits","type":"uint256","internalType":"uint256"},{"name":"customAccess","type":"bool","internalType":"bool"}],"outputs":[{"name":"","type":"bool","internalType":"bool"}],"stateMutability":"view"},{"type":"function","name":"customAccessPrice","inputs":[],"outputs":[{"name":"","type":"uint256","internalType":"uint256"}],"stateMutability":"view"},{"type":"function","name":"extraStoragePrice","inputs":[],"outputs":[{"name":"","type":"uint256","internalType":"uint256"}],"stateMutability":"view"},{"type":"function","name":"isPromotionalPeriod","inputs":[],"outputs":[{"name":"","type":"bool","internalType":"bool"}],"stateMutability":"view"},{"type":"function","name":"owner","inputs":[],"outputs":[{"name":"","type":"address","internalType":"address"}],"stateMutability":"view"},{"type":"function","name":"processCapsulePayment","inputs":[{"name":"user","type":"address","internalType":"address"},{"name":"capsuleType","type":"string","internalType":"string"},{"name":"extraStorageUnits","type":"uint256","internalType":"uint256"},{"name":"customAccess","type":"bool","internalType":"bool"}],"outputs":[{"name":"","type":"bool","internalType":"bool"}],"stateMutability":"nonpayable"},{"type":"function","name":"promotionalPeriodEnd","inputs":[],"outputs":[{"name":"","type":"uint256","internalType":"uint256"}],"stateMutability":"view"},{"type":"function","name":"renounceOwnership","inputs":[],"outputs":[],"stateMutability":"nonpayable"},{"type":"function","name":"transferOwnership","inputs":[{"name":"newOwner","type":"address","internalType":"address"}],"outputs":[],"stateMutability":"nonpayable"},{"type":"function","name":"updateCapsuleType","inputs":[{"name":"name","type":"string","internalType":"string"},{"name":"basePrice","type":"uint256","internalType":"uint256"},{"name":"maxSize","type":"uint256","internalType":"uint256"},{"name":"duration","type":"uint256","internalType":"uint256"}],"outputs":[],"stateMutability":"nonpayable"},{"type":"function","name":"updateCustomAccessPrice","inputs":[{"name":"newPrice","type":"uint256","internalType":"uint256"}],"outputs":[],"stateMutability":"nonpayable"},{"type":"function","name":"updateExtraStoragePrice","inputs":[{"name":"newPrice","type":"uint256","internalType":"uint256"}],"outputs":[],"stateMutability":"nonpayable"},{"type":"function","name":"usdcToken","inputs":[],"outputs":[{"name":"","type":"address","internalType":"contract IERC20"}],"stateMutability":"view"},{"type":"function","name":"withdrawUSDC","inputs":[{"name":"to","type":"address","internalType":"address"},{"name":"amount","type":"uint256","internalType":"uint256"}],"outputs":[],"stateMutability":"nonpayable"},{"type":"event","name":"CapsuleTypeUpdated","inputs":[{"name":"name","type":"string","indexed":false,"internalType":"string"},{"name":"basePrice","type":"uint256","indexed":false,"internalType":"uint256"},{"name":"maxSize","type":"uint256","indexed":false,"internalType":"uint256"},{"name":"duration","type":"uint256","indexed":false,"internalType":"uint256"}],"anonymous":false},{"type":"event","name":"OwnershipTransferred","inputs":[{"name":"previousOwner","type":"address","indexed":true,"internalType":"address"},{"name":"newOwner","type":"address","indexed":true,"internalType":"address"}],"anonymous":false},{"type":"event","name":"PriceCalculated","inputs":[{"name":"user","type":"address","indexed":false,"internalType":"address"},{"name":"capsuleType","type":"string","indexed":false,"internalType":"string"},{"name":"totalPrice","type":"uint256","indexed":false,"internalType":"uint256"}],"anonymous":false}],"bytecode":{"object":"0x60806040526207a1206003556216e36060045534801561001d575f5ffd5b5060405161100638038061100683398101604081905261003c91610292565b61004533610243565b600180546001600160a01b0319166001600160a01b03831617905561006d4262ed4e006102bf565b600590815560408051606081018252621e84808152600a60208201528082018390529051641cdb585b1b60da1b81529091600291019081526040805191829003602090810183208451815584820151600182015593820151600294850155606083018252625b8d808352603290830152600a82820152519091906100fd90656d656469756d60d01b815260060190565b908152604080519182900360209081018320845181558482015160018201559382015160029485015560608301825262a7d8c083526064908301526014828201525190919061015790646c6172676560d81b815260050190565b908152604080519182900360209081018320845181558482015160018201559382015160029485015560608301825263017d78408352606490830152603282820152519091906101b490667072656d69756d60c81b815260070190565b90815260408051918290036020908101832084518155848201516001820155938201516002948501556060830182526303dfd24083526064908301525f82820152519091906102109066195d195c9b985b60ca1b815260070190565b90815260200160405180910390205f820151815f01556020820151816001015560408201518160020155905050506102e4565b5f80546001600160a01b038381166001600160a01b0319831681178455604051919092169283917f8be0079c531659141344cd1fd0a4f28419497f9722a3daafe3b4186f6b6457e09190a35050565b5f602082840312156102a2575f5ffd5b81516001600160a01b03811681146102b8575f5ffd5b9392505050565b808201808211156102de57634e487b7160e01b5f52601160045260245ffd5b92915050565b610d15806102f15f395ff3fe608060405234801561000f575f5ffd5b5060043610610110575f3560e01c806387e68c4e1161009e578063c3c84ba71161006e578063c3c84ba714610258578063cc13ea8614610263578063db2d1c9d14610276578063eedc440e1461027f578063f2fde38b14610292575f5ffd5b806387e68c4e146102195780638da5cb5b1461022c57806393c2e6401461023c578063b8b5ee2f14610245575f5ffd5b80633aa62b62116100e45780633aa62b621461018757806344471fd91461019c5780635ae91880146101af5780636e6506a214610208578063715018a614610211575f5ffd5b80620b46f81461011457806311eac8551461012f57806323d1b06c1461015a57806330f03e8814610164575b5f5ffd5b61011c60c881565b6040519081526020015b60405180910390f35b600154610142906001600160a01b031681565b6040516001600160a01b039091168152602001610126565b61011c6207a12081565b610177610172366004610a06565b6102a5565b6040519015158152602001610126565b61019a610195366004610a6c565b61042f565b005b61019a6101aa366004610a83565b61043c565b6101ed6101bd366004610aab565b80516020818301810180516002808352938301929094019190912092905281546001830154929091015490919083565b60408051938452602084019290925290820152606001610126565b61011c60035481565b61019a610500565b61019a610227366004610a6c565b610513565b5f546001600160a01b0316610142565b61011c60045481565b610177610253366004610a06565b610520565b600554421115610177565b61011c610271366004610ae5565b610626565b61011c60055481565b61019a61028d366004610b3c565b610783565b61019a6102a0366004610b8c565b61081e565b5f5f6102b2858585610626565b90506102c086868686610520565b61032a5760405162461bcd60e51b815260206004820152603060248201527f536f6c6465205553444320696e737566666973616e74206f7520616c6c6f776160448201526f6e6365206e6f6e206163636f7264656560801b60648201526084015b60405180910390fd5b6001546040516323b872dd60e01b81526001600160a01b03888116600483015230602483015260448201849052909116906323b872dd906064016020604051808303815f875af1158015610380573d5f5f3e3d5ffd5b505050506040513d601f19601f820116820180604052508101906103a49190610ba5565b6103e85760405162461bcd60e51b81526020600482015260156024820152745472616e73666572742055534443206563686f756560581b6044820152606401610321565b7fa61476ecc9d9c2a432fff88537e6e22264c1d01ef9c9c4066f455c7938486a2086868360405161041b93929190610bee565b60405180910390a150600195945050505050565b610437610897565b600455565b610444610897565b60015460405163a9059cbb60e01b81526001600160a01b038481166004830152602482018490529091169063a9059cbb906044016020604051808303815f875af1158015610494573d5f5f3e3d5ffd5b505050506040513d601f19601f820116820180604052508101906104b89190610ba5565b6104fc5760405162461bcd60e51b81526020600482015260156024820152745472616e73666572742055534443206563686f756560581b6044820152606401610321565b5050565b610508610897565b6105115f6108f0565b565b61051b610897565b600355565b5f5f61052d858585610626565b6001546040516370a0823160e01b81526001600160a01b0389811660048301529293508392909116906370a0823190602401602060405180830381865afa15801561057a573d5f5f3e3d5ffd5b505050506040513d601f19601f8201168201806040525081019061059e9190610c21565b1015801561061c5750600154604051636eb1769f60e11b81526001600160a01b0388811660048301523060248301528392169063dd62ed3e90604401602060405180830381865afa1580156105f5573d5f5f3e3d5ffd5b505050506040513d601f19601f820116820180604052508101906106199190610c21565b10155b9695505050505050565b5f5f6002856040516106389190610c38565b90815260405190819003602001902054116106955760405162461bcd60e51b815260206004820152601860248201527f547970652064652063617073756c6520696e76616c69646500000000000000006044820152606401610321565b60055442116106ea575f6106aa84600a610c62565b6106b790620f4240610c62565b90505f6127106106c860c884610c62565b6106d29190610c7f565b90506106e1816207a120610c9e565b9250505061077c565b5f6002856040516106fb9190610c38565b908152604051908190036020019020549050831561072d576003546107209085610c62565b61072a9082610c9e565b90505b8215610743576004546107409082610c9e565b90505b6107506207a12082610c9e565b90505f61271061076160c884610c62565b61076b9190610c7f565b90506107778183610c9e565b925050505b9392505050565b61078b610897565b6040518060600160405280848152602001838152602001828152506002856040516107b69190610c38565b9081526040805160209281900383018120845181559284015160018401559201516002909101557fe496bdcac3014f4f9b7bb275be75889c6493c028a1932e14f347045552e047df90610810908690869086908690610cb1565b60405180910390a150505050565b610826610897565b6001600160a01b03811661088b5760405162461bcd60e51b815260206004820152602660248201527f4f776e61626c653a206e6577206f776e657220697320746865207a65726f206160448201526564647265737360d01b6064820152608401610321565b610894816108f0565b50565b5f546001600160a01b031633146105115760405162461bcd60e51b815260206004820181905260248201527f4f776e61626c653a2063616c6c6572206973206e6f7420746865206f776e65726044820152606401610321565b5f80546001600160a01b038381166001600160a01b0319831681178455604051919092169283917f8be0079c531659141344cd1fd0a4f28419497f9722a3daafe3b4186f6b6457e09190a35050565b80356001600160a01b0381168114610955575f5ffd5b919050565b634e487b7160e01b5f52604160045260245ffd5b5f82601f83011261097d575f5ffd5b813567ffffffffffffffff8111156109975761099761095a565b604051601f8201601f19908116603f0116810167ffffffffffffffff811182821017156109c6576109c661095a565b6040528181528382016020018510156109dd575f5ffd5b816020850160208301375f918101602001919091529392505050565b8015158114610894575f5ffd5b5f5f5f5f60808587031215610a19575f5ffd5b610a228561093f565b9350602085013567ffffffffffffffff811115610a3d575f5ffd5b610a498782880161096e565b935050604085013591506060850135610a61816109f9565b939692955090935050565b5f60208284031215610a7c575f5ffd5b5035919050565b5f5f60408385031215610a94575f5ffd5b610a9d8361093f565b946020939093013593505050565b5f60208284031215610abb575f5ffd5b813567ffffffffffffffff811115610ad1575f5ffd5b610add8482850161096e565b949350505050565b5f5f5f60608486031215610af7575f5ffd5b833567ffffffffffffffff811115610b0d575f5ffd5b610b198682870161096e565b935050602084013591506040840135610b31816109f9565b809150509250925092565b5f5f5f5f60808587031215610b4f575f5ffd5b843567ffffffffffffffff811115610b65575f5ffd5b610b718782880161096e565b97602087013597506040870135966060013595509350505050565b5f60208284031215610b9c575f5ffd5b61077c8261093f565b5f60208284031215610bb5575f5ffd5b815161077c816109f9565b5f81518084528060208401602086015e5f602082860101526020601f19601f83011685010191505092915050565b6001600160a01b03841681526060602082018190525f90610c1190830185610bc0565b9050826040830152949350505050565b5f60208284031215610c31575f5ffd5b5051919050565b5f82518060208501845e5f920191825250919050565b634e487b7160e01b5f52601160045260245ffd5b8082028115828204841417610c7957610c79610c4e565b92915050565b5f82610c9957634e487b7160e01b5f52601260045260245ffd5b500490565b80820180821115610c7957610c79610c4e565b608081525f610cc36080830187610bc0565b602083019590955250604081019290925260609091015291905056fea26469706673582212202633c79e4531e80dce68cc3df0dcacc1a9868a82e4292067956005b58e53c57664736f6c634300081b0033","linkReferences":{}},"methodIdentifiers":{"FEE_PERCENTAGE()":"000b46f8","FIXED_FEE()":"23d1b06c","calculatePrice(string,uint256,bool)":"cc13ea86","capsuleTypes(string)":"5ae91880","checkPaymentPossible(address,string,uint256,bool)":"b8b5ee2f","customAccessPrice()":"93c2e640","extraStoragePrice()":"6e6506a2","isPromotionalPeriod()":"c3c84ba7","owner()":"8da5cb5b","processCapsulePayment(address,string,uint256,bool)":"30f03e88","promotionalPeriodEnd()":"db2d1c9d","renounceOwnership()":"715018a6","transferOwnership(address)":"f2fde38b","updateCapsuleType(string,uint256,uint256,uint256)":"eedc440e","updateCustomAccessPrice(uint256)":"3aa62b62","updateExtraStoragePrice(uint256)":"87e68c4e","usdcToken()":"11eac855","withdrawUSDC(address,uint256)":"44471fd9"},"id":0}