{"abi":[{"type":"function","name":"CREATION_FEE","inputs":[],"outputs":[{"name":"","type":"uint256","internalType":"uint256"}],"stateMutability":"view"},{"type":"function","name":"canUnlock","inputs":[{"name":"_id","type":"uint256","internalType":"uint256"}],"outputs":[{"name":"","type":"bool","internalType":"bool"}],"stateMutability":"view"},{"type":"function","name":"capsuleCount","inputs":[],"outputs":[{"name":"","type":"uint256","internalType":"uint256"}],"stateMutability":"view"},{"type":"function","name":"capsules","inputs":[{"name":"","type":"uint256","internalType":"uint256"}],"outputs":[{"name":"content","type":"string","internalType":"string"},{"name":"title","type":"string","internalType":"string"},{"name":"description","type":"string","internalType":"string"},{"name":"unlockTime","type":"uint256","internalType":"uint256"},{"name":"owner","type":"address","internalType":"address"},{"name":"isUnlocked","type":"bool","internalType":"bool"},{"name":"createdAt","type":"uint96","internalType":"uint96"}],"stateMutability":"view"},{"type":"function","name":"createCapsule","inputs":[{"name":"_content","type":"string","internalType":"string"},{"name":"_title","type":"string","internalType":"string"},{"name":"_description","type":"string","internalType":"string"},{"name":"_unlockTime","type":"uint256","internalType":"uint256"}],"outputs":[],"stateMutability":"payable"},{"type":"function","name":"deleteCapsule","inputs":[{"name":"_id","type":"uint256","internalType":"uint256"}],"outputs":[],"stateMutability":"nonpayable"},{"type":"function","name":"getCapsuleByOwner","inputs":[{"name":"_owner","type":"address","internalType":"address"}],"outputs":[{"name":"","type":"uint256[]","internalType":"uint256[]"}],"stateMutability":"view"},{"type":"function","name":"unlockCapsule","inputs":[{"name":"_id","type":"uint256","internalType":"uint256"}],"outputs":[],"stateMutability":"nonpayable"},{"type":"function","name":"updateCapsuleMetadata","inputs":[{"name":"_id","type":"uint256","internalType":"uint256"},{"name":"_newTitle","type":"string","internalType":"string"},{"name":"_newDescription","type":"string","internalType":"string"}],"outputs":[],"stateMutability":"nonpayable"},{"type":"event","name":"CapsuleCreated","inputs":[{"name":"id","type":"uint256","indexed":true,"internalType":"uint256"},{"name":"owner","type":"address","indexed":true,"internalType":"address"},{"name":"unlockTime","type":"uint256","indexed":false,"internalType":"uint256"},{"name":"title","type":"string","indexed":false,"internalType":"string"},{"name":"description","type":"string","indexed":false,"internalType":"string"}],"anonymous":false},{"type":"event","name":"CapsuleMetadataUpdated","inputs":[{"name":"id","type":"uint256","indexed":true,"internalType":"uint256"},{"name":"newTitle","type":"string","indexed":false,"internalType":"string"},{"name":"newDescription","type":"string","indexed":false,"internalType":"string"}],"anonymous":false},{"type":"event","name":"CapsuleUnlocked","inputs":[{"name":"id","type":"uint256","indexed":true,"internalType":"uint256"},{"name":"owner","type":"address","indexed":true,"internalType":"address"},{"name":"unlockAt","type":"uint256","indexed":false,"internalType":"uint256"}],"anonymous":false}],"bytecode":{"object":"0x6080604052348015600e575f5ffd5b5060015f55611039806100205f395ff3fe608060405260043610610084575f3560e01c8063517bbf4611610057578063517bbf461461010a57806358466a441461013c57806370d7dc6b1461014f578063bf7c6b461461016e578063d94a7af51461019a575f5ffd5b806305dc0394146100885780632178c0a2146100b057806329d72336146100d157806349a2104d146100f0575b5f5ffd5b348015610093575f5ffd5b5061009d60025481565b6040519081526020015b60405180910390f35b3480156100bb575f5ffd5b506100cf6100ca366004610b0c565b6101c9565b005b3480156100dc575f5ffd5b506100cf6100eb366004610b0c565b61031c565b3480156100fb575f5ffd5b5061009d662386f26fc1000081565b348015610115575f5ffd5b50610129610124366004610b0c565b610440565b6040516100a79796959493929190610b51565b6100cf61014a366004610c61565b610625565b34801561015a575f5ffd5b506100cf610169366004610cf7565b61082a565b348015610179575f5ffd5b5061018d610188366004610d64565b61093e565b6040516100a79190610d8a565b3480156101a5575f5ffd5b506101b96101b4366004610b0c565b6109f5565b60405190151581526020016100a7565b60025481106101f35760405162461bcd60e51b81526004016101ea90610dcc565b60405180910390fd5b5f81815260016020526040902060048101546001600160a01b0316331461022c5760405162461bcd60e51b81526004016101ea90610dfc565b80600301544210156102765760405162461bcd60e51b8152602060048201526013602482015272546f6f206561726c7920746f20756e6c6f636b60681b60448201526064016101ea565b6004810154600160a01b900460ff16156102c55760405162461bcd60e51b815260206004820152601060248201526f105b1c9958591e481d5b9b1bd8dad95960821b60448201526064016101ea565b60048101805460ff60a01b1916600160a01b179055604051339083907f663589242dc1e7796afac507ef8fbdedc2b32ed0eb136aeb8809da0d7139293c906103109042815260200190565b60405180910390a35050565b600254811061033d5760405162461bcd60e51b81526004016101ea90610dcc565b5f81815260016020526040902060048101546001600160a01b031633146103765760405162461bcd60e51b81526004016101ea90610dfc565b6004810154600160a01b900460ff166103db5760405162461bcd60e51b815260206004820152602160248201527f43616e206f6e6c792064656c65746520756e6c6f636b65642063617073756c656044820152607360f81b60648201526084016101ea565b5f828152600160205260408120906103f38282610aba565b610400600183015f610aba565b61040d600283015f610aba565b505f60038201556004810180546001600160a81b031916905560050180546bffffffffffffffffffffffff191690555050565b60016020525f908152604090208054819061045a90610e2b565b80601f016020809104026020016040519081016040528092919081815260200182805461048690610e2b565b80156104d15780601f106104a8576101008083540402835291602001916104d1565b820191905f5260205f20905b8154815290600101906020018083116104b457829003601f168201915b5050505050908060010180546104e690610e2b565b80601f016020809104026020016040519081016040528092919081815260200182805461051290610e2b565b801561055d5780601f106105345761010080835404028352916020019161055d565b820191905f5260205f20905b81548152906001019060200180831161054057829003601f168201915b50505050509080600201805461057290610e2b565b80601f016020809104026020016040519081016040528092919081815260200182805461059e90610e2b565b80156105e95780601f106105c0576101008083540402835291602001916105e9565b820191905f5260205f20905b8154815290600101906020018083116105cc57829003601f168201915b5050505060038301546004840154600590940154929390926001600160a01b0382169250600160a01b90910460ff16906001600160601b031687565b61062d610a63565b4281116106865760405162461bcd60e51b815260206004820152602160248201527f556e6c6f636b2074696d65206d75737420626520696e207468652066757475726044820152606560f81b60648201526084016101ea565b5f8351116106ce5760405162461bcd60e51b81526020600482015260156024820152745469746c652063616e6e6f7420626520656d70747960581b60448201526064016101ea565b6040805160e0810182528581526020808201869052818301859052606082018490523360808301525f60a083018190526001600160601b03421660c08401526002548152600190915291909120815181906107299082610eaf565b506020820151600182019061073e9082610eaf565b50604082015160028201906107539082610eaf565b5060608201516003820155608082015160048201805460a08501516001600160a01b039093166001600160a81b031990911617600160a01b9215159290920291909117905560c090910151600590910180546bffffffffffffffffffffffff19166001600160601b039092169190911790556002546040513391907f5b7a44e983457cd191cd9b223b1cdab77b36e9868f9fd4d3984b23b7639facf4906107ff90859088908890610f6a565b60405180910390a360028054905f61081683610f9e565b919050555061082460015f55565b50505050565b600254831061084b5760405162461bcd60e51b81526004016101ea90610dcc565b5f83815260016020526040902060048101546001600160a01b031633146108845760405162461bcd60e51b81526004016101ea90610dfc565b6004810154600160a01b900460ff16156108e05760405162461bcd60e51b815260206004820152601e60248201527f43616e6e6f74206d6f6469667920756e6c6f636b65642063617073756c65000060448201526064016101ea565b600181016108ee8482610eaf565b50600281016108fd8382610eaf565b50837fe65a169840ca90b6a3d8320772ba32e88103f9e1a80ebf3cf702baae479b73598484604051610930929190610fc2565b60405180910390a250505050565b60605f60025467ffffffffffffffff81111561095c5761095c610bc2565b604051908082528060200260200182016040528015610985578160200160208202803683370190505b5090505f805b6002548110156109ec575f818152600160205260409020600401546001600160a01b038087169116036109e457808383815181106109cb576109cb610fef565b6020908102919091010152816109e081610f9e565b9250505b60010161098b565b50815292915050565b5f6002548210610a175760405162461bcd60e51b81526004016101ea90610dcc565b5f82815260016020526040902060048101546001600160a01b031633148015610a44575080600301544210155b8015610a5c57506004810154600160a01b900460ff16155b9392505050565b60025f5403610ab45760405162461bcd60e51b815260206004820152601f60248201527f5265656e7472616e637947756172643a207265656e7472616e742063616c6c0060448201526064016101ea565b60025f55565b508054610ac690610e2b565b5f825580601f10610ad5575050565b601f0160209004905f5260205f2090810190610af19190610af4565b50565b5b80821115610b08575f8155600101610af5565b5090565b5f60208284031215610b1c575f5ffd5b5035919050565b5f81518084528060208401602086015e5f602082860101526020601f19601f83011685010191505092915050565b60e081525f610b6360e083018a610b23565b8281036020840152610b75818a610b23565b90508281036040840152610b898189610b23565b606084019790975250506001600160a01b0393909316608084015290151560a08301526001600160601b031660c0909101529392505050565b634e487b7160e01b5f52604160045260245ffd5b5f82601f830112610be5575f5ffd5b813567ffffffffffffffff811115610bff57610bff610bc2565b604051601f8201601f19908116603f0116810167ffffffffffffffff81118282101715610c2e57610c2e610bc2565b604052818152838201602001851015610c45575f5ffd5b816020850160208301375f918101602001919091529392505050565b5f5f5f5f60808587031215610c74575f5ffd5b843567ffffffffffffffff811115610c8a575f5ffd5b610c9687828801610bd6565b945050602085013567ffffffffffffffff811115610cb2575f5ffd5b610cbe87828801610bd6565b935050604085013567ffffffffffffffff811115610cda575f5ffd5b610ce687828801610bd6565b949793965093946060013593505050565b5f5f5f60608486031215610d09575f5ffd5b83359250602084013567ffffffffffffffff811115610d26575f5ffd5b610d3286828701610bd6565b925050604084013567ffffffffffffffff811115610d4e575f5ffd5b610d5a86828701610bd6565b9150509250925092565b5f60208284031215610d74575f5ffd5b81356001600160a01b0381168114610a5c575f5ffd5b602080825282518282018190525f918401906040840190835b81811015610dc1578351835260209384019390920191600101610da3565b509095945050505050565b60208082526016908201527510d85c1cdd5b1948191bd95cc81b9bdd08195e1a5cdd60521b604082015260600190565b6020808252601590820152742737ba103a34329031b0b839bab6329037bbb732b960591b604082015260600190565b600181811c90821680610e3f57607f821691505b602082108103610e5d57634e487b7160e01b5f52602260045260245ffd5b50919050565b601f821115610eaa57805f5260205f20601f840160051c81016020851015610e885750805b601f840160051c820191505b81811015610ea7575f8155600101610e94565b50505b505050565b815167ffffffffffffffff811115610ec957610ec9610bc2565b610edd81610ed78454610e2b565b84610e63565b6020601f821160018114610f0f575f8315610ef85750848201515b5f19600385901b1c1916600184901b178455610ea7565b5f84815260208120601f198516915b82811015610f3e5787850151825560209485019460019092019101610f1e565b5084821015610f5b57868401515f19600387901b60f8161c191681555b50505050600190811b01905550565b838152606060208201525f610f826060830185610b23565b8281036040840152610f948185610b23565b9695505050505050565b5f60018201610fbb57634e487b7160e01b5f52601160045260245ffd5b5060010190565b604081525f610fd46040830185610b23565b8281036020840152610fe68185610b23565b95945050505050565b634e487b7160e01b5f52603260045260245ffdfea2646970667358221220cd42d425562b9235d075525a06993f832963b9bf395da557f571324faa95e3c964736f6c634300081b0033","linkReferences":{}},"methodIdentifiers":{"CREATION_FEE()":"49a2104d","canUnlock(uint256)":"d94a7af5","capsuleCount()":"05dc0394","capsules(uint256)":"517bbf46","createCapsule(string,string,string,uint256)":"58466a44","deleteCapsule(uint256)":"29d72336","getCapsuleByOwner(address)":"bf7c6b46","unlockCapsule(uint256)":"2178c0a2","updateCapsuleMetadata(uint256,string,string)":"70d7dc6b"},"id":1}