{"abi":[{"type":"function","name":"CREATION_FEE","inputs":[],"outputs":[{"name":"","type":"uint256","internalType":"uint256"}],"stateMutability":"view"},{"type":"function","name":"canUnlock","inputs":[{"name":"_id","type":"uint256","internalType":"uint256"}],"outputs":[{"name":"","type":"bool","internalType":"bool"}],"stateMutability":"view"},{"type":"function","name":"capsuleCount","inputs":[],"outputs":[{"name":"","type":"uint256","internalType":"uint256"}],"stateMutability":"view"},{"type":"function","name":"capsules","inputs":[{"name":"","type":"uint256","internalType":"uint256"}],"outputs":[{"name":"content","type":"string","internalType":"string"},{"name":"title","type":"string","internalType":"string"},{"name":"description","type":"string","internalType":"string"},{"name":"unlockTime","type":"uint256","internalType":"uint256"},{"name":"owner","type":"address","internalType":"address"},{"name":"isUnlocked","type":"bool","internalType":"bool"},{"name":"createdAt","type":"uint96","internalType":"uint96"}],"stateMutability":"view"},{"type":"function","name":"createCapsule","inputs":[{"name":"_content","type":"string","internalType":"string"},{"name":"_title","type":"string","internalType":"string"},{"name":"_description","type":"string","internalType":"string"},{"name":"_unlockTime","type":"uint256","internalType":"uint256"}],"outputs":[],"stateMutability":"payable"},{"type":"function","name":"deleteCapsule","inputs":[{"name":"_id","type":"uint256","internalType":"uint256"}],"outputs":[],"stateMutability":"nonpayable"},{"type":"function","name":"getCapsuleByOwner","inputs":[{"name":"_owner","type":"address","internalType":"address"}],"outputs":[{"name":"","type":"uint256[]","internalType":"uint256[]"}],"stateMutability":"view"},{"type":"function","name":"unlockCapsule","inputs":[{"name":"_id","type":"uint256","internalType":"uint256"}],"outputs":[],"stateMutability":"nonpayable"},{"type":"function","name":"updateCapsuleMetadata","inputs":[{"name":"_id","type":"uint256","internalType":"uint256"},{"name":"_newTitle","type":"string","internalType":"string"},{"name":"_newDescription","type":"string","internalType":"string"}],"outputs":[],"stateMutability":"nonpayable"},{"type":"event","name":"CapsuleCreated","inputs":[{"name":"id","type":"uint256","indexed":true,"internalType":"uint256"},{"name":"owner","type":"address","indexed":true,"internalType":"address"},{"name":"unlockTime","type":"uint256","indexed":false,"internalType":"uint256"},{"name":"title","type":"string","indexed":false,"internalType":"string"},{"name":"description","type":"string","indexed":false,"internalType":"string"}],"anonymous":false},{"type":"event","name":"CapsuleMetadataUpdated","inputs":[{"name":"id","type":"uint256","indexed":true,"internalType":"uint256"},{"name":"newTitle","type":"string","indexed":false,"internalType":"string"},{"name":"newDescription","type":"string","indexed":false,"internalType":"string"}],"anonymous":false},{"type":"event","name":"CapsuleUnlocked","inputs":[{"name":"id","type":"uint256","indexed":true,"internalType":"uint256"},{"name":"owner","type":"address","indexed":true,"internalType":"address"},{"name":"unlockAt","type":"uint256","indexed":false,"internalType":"uint256"}],"anonymous":false}],"bytecode":{"object":"0x608060405234801561001057600080fd5b506001600081905550611d53806100286000396000f3fe6080604052600436106100865760003560e01c8063517bbf4611610059578063517bbf461461013357806358466a441461017657806370d7dc6b14610192578063bf7c6b46146101bb578063d94a7af5146101f857610086565b806305dc03941461008b5780632178c0a2146100b657806329d72336146100df57806349a2104d14610108575b600080fd5b34801561009757600080fd5b506100a0610235565b6040516100ad9190610f17565b60405180910390f35b3480156100c257600080fd5b506100dd60048036038101906100d89190610f72565b61023b565b005b3480156100eb57600080fd5b5061010660048036038101906101019190610f72565b610431565b005b34801561011457600080fd5b5061011d61061b565b60405161012a9190610f17565b60405180910390f35b34801561013f57600080fd5b5061015a60048036038101906101559190610f72565b610626565b60405161016d97969594939291906110b2565b60405180910390f35b610190600480360381019061018b919061126b565b610845565b005b34801561019e57600080fd5b506101b960048036038101906101b49190611326565b610aaa565b005b3480156101c757600080fd5b506101e260048036038101906101dd91906113dd565b610c4d565b6040516101ef91906114c8565b60405180910390f35b34801561020457600080fd5b5061021f600480360381019061021a9190610f72565b610d65565b60405161022c91906114ea565b60405180910390f35b60025481565b600254811061027f576040517f08c379a000000000000000000000000000000000000000000000000000000000815260040161027690611551565b60405180910390fd5b60006001600083815260200190815260200160002090508060040160009054906101000a900473ffffffffffffffffffffffffffffffffffffffff1673ffffffffffffffffffffffffffffffffffffffff163373ffffffffffffffffffffffffffffffffffffffff1614610328576040517f08c379a000000000000000000000000000000000000000000000000000000000815260040161031f906115bd565b60405180910390fd5b806003015442101561036f576040517f08c379a000000000000000000000000000000000000000000000000000000000815260040161036690611629565b60405180910390fd5b8060040160149054906101000a900460ff16156103c1576040517f08c379a00000000000000000000000000000000000000000000000000000000081526004016103b890611695565b60405180910390fd5b60018160040160146101000a81548160ff0219169083151502179055503373ffffffffffffffffffffffffffffffffffffffff16827f663589242dc1e7796afac507ef8fbdedc2b32ed0eb136aeb8809da0d7139293c426040516104259190610f17565b60405180910390a35050565b6002548110610475576040517f08c379a000000000000000000000000000000000000000000000000000000000815260040161046c90611551565b60405180910390fd5b60006001600083815260200190815260200160002090508060040160009054906101000a900473ffffffffffffffffffffffffffffffffffffffff1673ffffffffffffffffffffffffffffffffffffffff163373ffffffffffffffffffffffffffffffffffffffff161461051e576040517f08c379a0000000000000000000000000000000000000000000000000000000008152600401610515906115bd565b60405180910390fd5b8060040160149054906101000a900460ff1661056f576040517f08c379a000000000000000000000000000000000000000000000000000000000815260040161056690611727565b60405180910390fd5b60016000838152602001908152602001600020600080820160006105939190610ea1565b6001820160006105a39190610ea1565b6002820160006105b39190610ea1565b60038201600090556004820160006101000a81549073ffffffffffffffffffffffffffffffffffffffff02191690556004820160146101000a81549060ff02191690556005820160006101000a8154906bffffffffffffffffffffffff021916905550505050565b662386f26fc1000081565b600160205280600052604060002060009150905080600001805461064990611776565b80601f016020809104026020016040519081016040528092919081815260200182805461067590611776565b80156106c25780601f10610697576101008083540402835291602001916106c2565b820191906000526020600020905b8154815290600101906020018083116106a557829003601f168201915b5050505050908060010180546106d790611776565b80601f016020809104026020016040519081016040528092919081815260200182805461070390611776565b80156107505780601f1061072557610100808354040283529160200191610750565b820191906000526020600020905b81548152906001019060200180831161073357829003601f168201915b50505050509080600201805461076590611776565b80601f016020809104026020016040519081016040528092919081815260200182805461079190611776565b80156107de5780601f106107b3576101008083540402835291602001916107de565b820191906000526020600020905b8154815290600101906020018083116107c157829003601f168201915b5050505050908060030154908060040160009054906101000a900473ffffffffffffffffffffffffffffffffffffffff16908060040160149054906101000a900460ff16908060050160009054906101000a90046bffffffffffffffffffffffff16905087565b61084d610e48565b42811161088f576040517f08c379a000000000000000000000000000000000000000000000000000000000815260040161088690611819565b60405180910390fd5b60008351116108d3576040517f08c379a00000000000000000000000000000000000000000000000000000000081526004016108ca90611885565b60405180910390fd5b6040518060e001604052808581526020018481526020018381526020018281526020013373ffffffffffffffffffffffffffffffffffffffff168152602001600015158152602001426bffffffffffffffffffffffff1681525060016000600254815260200190815260200160002060008201518160000190816109579190611a51565b50602082015181600101908161096d9190611a51565b5060408201518160020190816109839190611a51565b506060820151816003015560808201518160040160006101000a81548173ffffffffffffffffffffffffffffffffffffffff021916908373ffffffffffffffffffffffffffffffffffffffff16021790555060a08201518160040160146101000a81548160ff02191690831515021790555060c08201518160050160006101000a8154816bffffffffffffffffffffffff02191690836bffffffffffffffffffffffff1602179055509050503373ffffffffffffffffffffffffffffffffffffffff166002547f5b7a44e983457cd191cd9b223b1cdab77b36e9868f9fd4d3984b23b7639facf4838686604051610a7c93929190611b23565b60405180910390a360026000815480929190610a9790611b97565b9190505550610aa4610e97565b50505050565b6002548310610aee576040517f08c379a0000000000000000000000000000000000000000000000000000000008152600401610ae590611551565b60405180910390fd5b60006001600085815260200190815260200160002090508060040160009054906101000a900473ffffffffffffffffffffffffffffffffffffffff1673ffffffffffffffffffffffffffffffffffffffff163373ffffffffffffffffffffffffffffffffffffffff1614610b97576040517f08c379a0000000000000000000000000000000000000000000000000000000008152600401610b8e906115bd565b60405180910390fd5b8060040160149054906101000a900460ff1615610be9576040517f08c379a0000000000000000000000000000000000000000000000000000000008152600401610be090611c2b565b60405180910390fd5b82816001019081610bfa9190611a51565b5081816002019081610c0c9190611a51565b50837fe65a169840ca90b6a3d8320772ba32e88103f9e1a80ebf3cf702baae479b73598484604051610c3f929190611c4b565b60405180910390a250505050565b6060600060025467ffffffffffffffff811115610c6d57610c6c611140565b5b604051908082528060200260200182016040528015610c9b5781602001602082028036833780820191505090505b5090506000805b600254811015610d57578473ffffffffffffffffffffffffffffffffffffffff166001600083815260200190815260200160002060040160009054906101000a900473ffffffffffffffffffffffffffffffffffffffff1673ffffffffffffffffffffffffffffffffffffffff1603610d445780838381518110610d2957610d28611c82565b5b6020026020010181815250508180610d4090611b97565b9250505b8080610d4f90611b97565b915050610ca2565b508082528192505050919050565b60006002548210610dab576040517f08c379a0000000000000000000000000000000000000000000000000000000008152600401610da290611551565b60405180910390fd5b60006001600084815260200190815260200160002090508060040160009054906101000a900473ffffffffffffffffffffffffffffffffffffffff1673ffffffffffffffffffffffffffffffffffffffff163373ffffffffffffffffffffffffffffffffffffffff16148015610e25575080600301544210155b8015610e4057508060040160149054906101000a900460ff16155b915050919050565b600260005403610e8d576040517f08c379a0000000000000000000000000000000000000000000000000000000008152600401610e8490611cfd565b60405180910390fd5b6002600081905550565b6001600081905550565b508054610ead90611776565b6000825580601f10610ebf5750610ede565b601f016020900490600052602060002090810190610edd9190610ee1565b5b50565b5b80821115610efa576000816000905550600101610ee2565b5090565b6000819050919050565b610f1181610efe565b82525050565b6000602082019050610f2c6000830184610f08565b92915050565b6000604051905090565b600080fd5b600080fd5b610f4f81610efe565b8114610f5a57600080fd5b50565b600081359050610f6c81610f46565b92915050565b600060208284031215610f8857610f87610f3c565b5b6000610f9684828501610f5d565b91505092915050565b600081519050919050565b600082825260208201905092915050565b60005b83811015610fd9578082015181840152602081019050610fbe565b60008484015250505050565b6000601f19601f8301169050919050565b600061100182610f9f565b61100b8185610faa565b935061101b818560208601610fbb565b61102481610fe5565b840191505092915050565b600073ffffffffffffffffffffffffffffffffffffffff82169050919050565b600061105a8261102f565b9050919050565b61106a8161104f565b82525050565b60008115159050919050565b61108581611070565b82525050565b60006bffffffffffffffffffffffff82169050919050565b6110ac8161108b565b82525050565b600060e08201905081810360008301526110cc818a610ff6565b905081810360208301526110e08189610ff6565b905081810360408301526110f48188610ff6565b90506111036060830187610f08565b6111106080830186611061565b61111d60a083018561107c565b61112a60c08301846110a3565b98975050505050505050565b600080fd5b600080fd5b7f4e487b7100000000000000000000000000000000000000000000000000000000600052604160045260246000fd5b61117882610fe5565b810181811067ffffffffffffffff8211171561119757611196611140565b5b80604052505050565b60006111aa610f32565b90506111b6828261116f565b919050565b600067ffffffffffffffff8211156111d6576111d5611140565b5b6111df82610fe5565b9050602081019050919050565b82818337600083830152505050565b600061120e611209846111bb565b6111a0565b90508281526020810184848401111561122a5761122961113b565b5b6112358482856111ec565b509392505050565b600082601f83011261125257611251611136565b5b81356112628482602086016111fb565b91505092915050565b6000806000806080858703121561128557611284610f3c565b5b600085013567ffffffffffffffff8111156112a3576112a2610f41565b5b6112af8782880161123d565b945050602085013567ffffffffffffffff8111156112d0576112cf610f41565b5b6112dc8782880161123d565b935050604085013567ffffffffffffffff8111156112fd576112fc610f41565b5b6113098782880161123d565b925050606061131a87828801610f5d565b91505092959194509250565b60008060006060848603121561133f5761133e610f3c565b5b600061134d86828701610f5d565b935050602084013567ffffffffffffffff81111561136e5761136d610f41565b5b61137a8682870161123d565b925050604084013567ffffffffffffffff81111561139b5761139a610f41565b5b6113a78682870161123d565b9150509250925092565b6113ba8161104f565b81146113c557600080fd5b50565b6000813590506113d7816113b1565b92915050565b6000602082840312156113f3576113f2610f3c565b5b6000611401848285016113c8565b91505092915050565b600081519050919050565b600082825260208201905092915050565b6000819050602082019050919050565b61143f81610efe565b82525050565b60006114518383611436565b60208301905092915050565b6000602082019050919050565b60006114758261140a565b61147f8185611415565b935061148a83611426565b8060005b838110156114bb5781516114a28882611445565b97506114ad8361145d565b92505060018101905061148e565b5085935050505092915050565b600060208201905081810360008301526114e2818461146a565b905092915050565b60006020820190506114ff600083018461107c565b92915050565b7f43617073756c6520646f6573206e6f7420657869737400000000000000000000600082015250565b600061153b601683610faa565b915061154682611505565b602082019050919050565b6000602082019050818103600083015261156a8161152e565b9050919050565b7f4e6f74207468652063617073756c65206f776e65720000000000000000000000600082015250565b60006115a7601583610faa565b91506115b282611571565b602082019050919050565b600060208201905081810360008301526115d68161159a565b9050919050565b7f546f6f206561726c7920746f20756e6c6f636b00000000000000000000000000600082015250565b6000611613601383610faa565b915061161e826115dd565b602082019050919050565b6000602082019050818103600083015261164281611606565b9050919050565b7f416c726561647920756e6c6f636b656400000000000000000000000000000000600082015250565b600061167f601083610faa565b915061168a82611649565b602082019050919050565b600060208201905081810360008301526116ae81611672565b9050919050565b7f43616e206f6e6c792064656c65746520756e6c6f636b65642063617073756c6560008201527f7300000000000000000000000000000000000000000000000000000000000000602082015250565b6000611711602183610faa565b915061171c826116b5565b604082019050919050565b6000602082019050818103600083015261174081611704565b9050919050565b7f4e487b7100000000000000000000000000000000000000000000000000000000600052602260045260246000fd5b6000600282049050600182168061178e57607f821691505b6020821081036117a1576117a0611747565b5b50919050565b7f556e6c6f636b2074696d65206d75737420626520696e2074686520667574757260008201527f6500000000000000000000000000000000000000000000000000000000000000602082015250565b6000611803602183610faa565b915061180e826117a7565b604082019050919050565b60006020820190508181036000830152611832816117f6565b9050919050565b7f5469746c652063616e6e6f7420626520656d7074790000000000000000000000600082015250565b600061186f601583610faa565b915061187a82611839565b602082019050919050565b6000602082019050818103600083015261189e81611862565b9050919050565b60008190508160005260206000209050919050565b60006020601f8301049050919050565b600082821b905092915050565b6000600883026119077fffffffffffffffffffffffffffffffffffffffffffffffffffffffffffffffff826118ca565b61191186836118ca565b95508019841693508086168417925050509392505050565b6000819050919050565b600061194e61194961194484610efe565b611929565b610efe565b9050919050565b6000819050919050565b61196883611933565b61197c61197482611955565b8484546118d7565b825550505050565b600090565b611991611984565b61199c81848461195f565b505050565b5b818110156119c0576119b5600082611989565b6001810190506119a2565b5050565b601f821115611a05576119d6816118a5565b6119df846118ba565b810160208510156119ee578190505b611a026119fa856118ba565b8301826119a1565b50505b505050565b600082821c905092915050565b6000611a2860001984600802611a0a565b1980831691505092915050565b6000611a418383611a17565b9150826002028217905092915050565b611a5a82610f9f565b67ffffffffffffffff811115611a7357611a72611140565b5b611a7d8254611776565b611a888282856119c4565b600060209050601f831160018114611abb5760008415611aa9578287015190505b611ab38582611a35565b865550611b1b565b601f198416611ac9866118a5565b60005b82811015611af157848901518255600182019150602085019450602081019050611acc565b86831015611b0e5784890151611b0a601f891682611a17565b8355505b6001600288020188555050505b505050505050565b6000606082019050611b386000830186610f08565b8181036020830152611b4a8185610ff6565b90508181036040830152611b5e8184610ff6565b9050949350505050565b7f4e487b7100000000000000000000000000000000000000000000000000000000600052601160045260246000fd5b6000611ba282610efe565b91507fffffffffffffffffffffffffffffffffffffffffffffffffffffffffffffffff8203611bd457611bd3611b68565b5b600182019050919050565b7f43616e6e6f74206d6f6469667920756e6c6f636b65642063617073756c650000600082015250565b6000611c15601e83610faa565b9150611c2082611bdf565b602082019050919050565b60006020820190508181036000830152611c4481611c08565b9050919050565b60006040820190508181036000830152611c658185610ff6565b90508181036020830152611c798184610ff6565b90509392505050565b7f4e487b7100000000000000000000000000000000000000000000000000000000600052603260045260246000fd5b7f5265656e7472616e637947756172643a207265656e7472616e742063616c6c00600082015250565b6000611ce7601f83610faa565b9150611cf282611cb1565b602082019050919050565b60006020820190508181036000830152611d1681611cda565b905091905056fea264697066735822122017a13e01af23a9b7196b2ab946f837264760d0d971c61017d74d86bdcc56e0cc64736f6c63430008130033","linkReferences":{}},"methodIdentifiers":{"CREATION_FEE()":"49a2104d","canUnlock(uint256)":"d94a7af5","capsuleCount()":"05dc0394","capsules(uint256)":"517bbf46","createCapsule(string,string,string,uint256)":"58466a44","deleteCapsule(uint256)":"29d72336","getCapsuleByOwner(address)":"bf7c6b46","unlockCapsule(uint256)":"2178c0a2","updateCapsuleMetadata(uint256,string,string)":"70d7dc6b"},"id":1}